:02000000422894
:10000800FF00030E8301D8000A08D9008A0170088E
:10001800A1007108A0008B1C24288B100030530607
:10002800031D182800305206031D1D280130F10059
:100038001E28F1017108D2000030D21BFF30D30016
:100048002108F0002008F10059088A00580E8300A2
:06005800FF0E7F0E0900FF
:0E005E008312031355088A005408820008001C
:10006C002F208A110A128000840AD40A0319D50A97
:08007C00F003031D3628080003
:100084000622033083160313860087018801831236
:1000940086018701083088008B170B168316011719
:1000A400003083125306031D5928013052060319E8
:1000B4003329881DC8281730D6000030D700803077
:1000C400F000803057067002031D6A285608003C71
:1000D4000318BE2800305306031D7228013052064F
:1000E4000319BE2808108030F000803057067002D3
:1000F400031D7E285608033C03188228F301842834
:100104000130F300731888288810892888148030F7
:10011400F000803057067002031D92285608033CF5
:10012400031897280130F4009828F40174189C28C7
:1001340008119D280815081288125608F00057085F
:10014400F100F00DF10D70107008223E84000008DB
:1001540087000B30FB002630FC005D30FD00FD0BFA
:10016400B128FC0BB128FB0BB128000000000130C2
:10017400D602031CD703612800305306031DC4288C
:10018400013052060319C728881132290F30D600CE
:100194000030D7008030F000803057067002031D15
:1001A400D5285608003C0318292900305306031D9E
:1001B400DD28013052060319292908148810081172
:1001C4008030F000803057067002031DEB2856087B
:1001D400033C0318EF28F501F1280130F5007518E8
:1001E400F5280812F62808168030F00080305706EB
:1001F4007002031DFF285608033C0318042901302C
:10020400F6000529F6017618092988120A298816A4
:100214005608F0005708F100F00DF10D7010700849
:10022400223E8400000887000B30FB002630FC00CF
:100234005D30FD00FD0B1C29FC0B1C29FB0B1C294C
:10024400000000000130D602031CD703CC28003084
:100254005306031D2F29013052060319322988152C
:10026400CC29881D81290330D6000030D700803086
:10027400F000803057067002031D42295608003CE6
:1002840003186929520853040319692988140811A9
:100294005608F0005708F100F00DF10D70107008C9
:1002A400223E8400000887000B30FB002630FC004F
:1002B4005D30FD00FD0B5C29FC0B5C29FB0B5C290C
:1002C400000000000130D602031CD703392952086C
:1002D400530403198029861880290814881088116A
:1002E4008816220887008230FC00DD30FD00FD0BFB
:1002F4007929FC0B7929000000006929CC290330F5
:10030400D6000030D7008030F000803057067002ED
:10031400031D8E295608003C0318B52952085304BE
:100324000319B529081688125608F0005708F10079
:10033400F00DF10D70107008223E84000008870053
:100344000B30FB002630FC005D30FD00FD0BA829BE
:10035400FC0BA829FB0BA829000000000130D602E1
:10036400031CD7038529520853040319CC29861882
:10037400CC29081008158815081222088700823035
:10038400FC00DD30FD00FD0BC529FC0BC529000078
:080394000000B5295228CD2913
:10040C0022308400323083120313F000D330D40036
:08041C000130D5003620080074
:1003A60000340034413400344234003443340034E1
:1003B6004434003445340034463400344734003481
:1003C6004834003449340034D0340034D134003455
:1003D600D2340034D3340034D4340034D534003429
:1003E600D6340034D7340034D8340034D934003409
:1003F600E0340034E1340034E2340034E3340034D1
:04040600003400348A
:02400E004A2F37
:00000001FF
